{
  "_format": "hh-sol-artifact-1",
  "contractName": "SimpleEncryptedWill",
  "sourceName": "contracts/SimpleEncryptedWill.sol",
  "abi": [
    {
      "anonymous": false,
      "inputs": [
        {
          "indexed": true,
          "internalType": "uint256",
          "name": "id",
          "type": "uint256"
        },
        {
          "indexed": true,
          "internalType": "address",
          "name": "testator",
          "type": "address"
        },
        {
          "indexed": true,
          "internalType": "address",
          "name": "beneficiary",
          "type": "address"
        }
      ],
      "name": "WillCreated",
      "type": "event"
    },
    {
      "anonymous": false,
      "inputs": [
        {
          "indexed": true,
          "internalType": "uint256",
          "name": "id",
          "type": "uint256"
        }
      ],
      "name": "WillExecuted",
      "type": "event"
    },
    {
      "anonymous": false,
      "inputs": [
        {
          "indexed": true,
          "internalType": "uint256",
          "name": "id",
          "type": "uint256"
        }
      ],
      "name": "WillUnlocked",
      "type": "event"
    },
    {
      "inputs": [
        {
          "internalType": "address",
          "name": "beneficiary",
          "type": "address"
        },
        {
          "internalType": "bytes",
          "name": "conditionCipher",
          "type": "bytes"
        },
        {
          "internalType": "bytes",
          "name": "payloadCipher",
          "type": "bytes"
        }
      ],
      "name": "createWill",
      "outputs": [
        {
          "internalType": "uint256",
          "name": "id",
          "type": "uint256"
        }
      ],
      "stateMutability": "nonpayable",
      "type": "function"
    },
    {
      "inputs": [
        {
          "internalType": "uint256",
          "name": "id",
          "type": "uint256"
        }
      ],
      "name": "getWill",
      "outputs": [
        {
          "internalType": "address",
          "name": "testator",
          "type": "address"
        },
        {
          "internalType": "address",
          "name": "beneficiary",
          "type": "address"
        },
        {
          "internalType": "bytes",
          "name": "conditionCipher",
          "type": "bytes"
        },
        {
          "internalType": "bytes",
          "name": "payloadCipher",
          "type": "bytes"
        },
        {
          "internalType": "bool",
          "name": "unlocked",
          "type": "bool"
        },
        {
          "internalType": "bool",
          "name": "executed",
          "type": "bool"
        }
      ],
      "stateMutability": "view",
      "type": "function"
    },
    {
      "inputs": [
        {
          "internalType": "uint256",
          "name": "id",
          "type": "uint256"
        }
      ],
      "name": "markExecuted",
      "outputs": [],
      "stateMutability": "nonpayable",
      "type": "function"
    },
    {
      "inputs": [],
      "name": "nextId",
      "outputs": [
        {
          "internalType": "uint256",
          "name": "",
          "type": "uint256"
        }
      ],
      "stateMutability": "view",
      "type": "function"
    },
    {
      "inputs": [
        {
          "internalType": "uint256",
          "name": "id",
          "type": "uint256"
        }
      ],
      "name": "unlockWill",
      "outputs": [],
      "stateMutability": "nonpayable",
      "type": "function"
    },
    {
      "inputs": [
        {
          "internalType": "uint256",
          "name": "",
          "type": "uint256"
        }
      ],
      "name": "wills",
      "outputs": [
        {
          "internalType": "address",
          "name": "testator",
          "type": "address"
        },
        {
          "internalType": "address",
          "name": "beneficiary",
          "type": "address"
        },
        {
          "internalType": "bytes",
          "name": "conditionCipher",
          "type": "bytes"
        },
        {
          "internalType": "bytes",
          "name": "payloadCipher",
          "type": "bytes"
        },
        {
          "internalType": "bool",
          "name": "unlocked",
          "type": "bool"
        },
        {
          "internalType": "bool",
          "name": "executed",
          "type": "bool"
        }
      ],
      "stateMutability": "view",
      "type": "function"
    }
  ],
  "bytecode": "0x608060405234801561001057600080fd5b5061148c806100206000396000f3fe608060405234801561001057600080fd5b50600436106100625760003560e01c8063375fbb14146100675780634192bbb01461008357806361b8ce8c146100b8578063689f3082146100d65780638db7fbe714610106578063f64051191461013b575b600080fd5b610081600480360381019061007c9190610b61565b610157565b005b61009d60048036038101906100989190610b61565b6102a1565b6040516100af96959493929190610c7a565b60405180910390f35b6100c06104f8565b6040516100cd9190610cf8565b60405180910390f35b6100f060048036038101906100eb9190610da4565b6104fe565b6040516100fd9190610cf8565b60405180910390f35b610120600480360381019061011b9190610b61565b6107e1565b60405161013296959493929190610c7a565b60405180910390f35b61015560048036038101906101509190610b61565b610987565b005b6000600160008381526020019081526020016000209050600073ffffffffffffffffffffffffffffffffffffffff168160000160009054906101000a900473ffffffffffffffffffffffffffffffffffffffff1673ffffffffffffffffffffffffffffffffffffffff1603610201576040517f08c379a00000000000000000000000000000000000000000000000000000000081526004016101f890610e96565b60405180910390fd5b8060040160009054906101000a900460ff1615610253576040517f08c379a000000000000000000000000000000000000000000000000000000000815260040161024a90610f02565b60405180910390fd5b60018160040160006101000a81548160ff021916908315150217905550817f1e4b9c4973c0ef9df6b59781ffb13a74436fbfe3643eb964236e035ec422132260405160405180910390a25050565b6000806060806000806000600160008981526020019081526020016000209050600073ffffffffffffffffffffffffffffffffffffffff168160000160009054906101000a900473ffffffffffffffffffffffffffffffffffffffff1673ffffffffffffffffffffffffffffffffffffffff1603610354576040517f08c379a000000000000000000000000000000000000000000000000000000000815260040161034b90610e96565b60405180910390fd5b8060000160009054906101000a900473ffffffffffffffffffffffffffffffffffffffff168160010160009054906101000a900473ffffffffffffffffffffffffffffffffffffffff1682600201836003018460040160009054906101000a900460ff168560040160019054906101000a900460ff168380546103d690610f51565b80601f016020809104026020016040519081016040528092919081815260200182805461040290610f51565b801561044f5780601f106104245761010080835404028352916020019161044f565b820191906000526020600020905b81548152906001019060200180831161043257829003601f168201915b5050505050935082805461046290610f51565b80601f016020809104026020016040519081016040528092919081815260200182805461048e90610f51565b80156104db5780601f106104b0576101008083540402835291602001916104db565b820191906000526020600020905b8154815290600101906020018083116104be57829003601f168201915b505050505092509650965096509650965096505091939550919395565b60005481565b60008073ffffffffffffffffffffffffffffffffffffffff168673ffffffffffffffffffffffffffffffffffffffff160361056e576040517f08c379a000000000000000000000000000000000000000000000000000000000815260040161056590610fce565b60405180910390fd5b6000808154809291906105809061101d565b9190505590506040518060c001604052803373ffffffffffffffffffffffffffffffffffffffff1681526020018773ffffffffffffffffffffffffffffffffffffffff16815260200186868080601f016020809104026020016040519081016040528093929190818152602001838380828437600081840152601f19601f82011690508083019250505050505050815260200184848080601f016020809104026020016040519081016040528093929190818152602001838380828437600081840152601f19601f820116905080830192505050505050508152602001600015158152602001600015158152506001600083815260200190815260200160002060008201518160000160006101000a81548173ffffffffffffffffffffffffffffffffffffffff021916908373ffffffffffffffffffffffffffffffffffffffff16021790555060208201518160010160006101000a81548173ffffffffffffffffffffffffffffffffffffffff021916908373ffffffffffffffffffffffffffffffffffffffff16021790555060408201518160020190816107239190611240565b5060608201518160030190816107399190611240565b5060808201518160040160006101000a81548160ff02191690831515021790555060a08201518160040160016101000a81548160ff0219169083151502179055509050508573ffffffffffffffffffffffffffffffffffffffff163373ffffffffffffffffffffffffffffffffffffffff16827fea759646d6e5b5b7272c32261c9b01b20baaf729f72e60392da920bd3ece030160405160405180910390a495945050505050565b60016020528060005260406000206000915090508060000160009054906101000a900473ffffffffffffffffffffffffffffffffffffffff16908060010160009054906101000a900473ffffffffffffffffffffffffffffffffffffffff169080600201805461085090610f51565b80601f016020809104026020016040519081016040528092919081815260200182805461087c90610f51565b80156108c95780601f1061089e576101008083540402835291602001916108c9565b820191906000526020600020905b8154815290600101906020018083116108ac57829003601f168201915b5050505050908060030180546108de90610f51565b80601f016020809104026020016040519081016040528092919081815260200182805461090a90610f51565b80156109575780601f1061092c57610100808354040283529160200191610957565b820191906000526020600020905b81548152906001019060200180831161093a57829003601f168201915b5050505050908060040160009054906101000a900460ff16908060040160019054906101000a900460ff16905086565b60006001600083815260200190815260200160002090508060010160009054906101000a900473ffffffffffffffffffffffffffffffffffffffff1673ffffffffffffffffffffffffffffffffffffffff163373ffffffffffffffffffffffffffffffffffffffff1614610a30576040517f08c379a0000000000000000000000000000000000000000000000000000000008152600401610a279061135e565b60405180910390fd5b8060040160009054906101000a900460ff16610a81576040517f08c379a0000000000000000000000000000000000000000000000000000000008152600401610a78906113ca565b60405180910390fd5b8060040160019054906101000a900460ff1615610ad3576040517f08c379a0000000000000000000000000000000000000000000000000000000008152600401610aca90611436565b60405180910390fd5b60018160040160016101000a81548160ff021916908315150217905550817fe1eed4d14c27a0834f76af3d47d7831c9365b6b811a9511770fc220a8fa9eae160405160405180910390a25050565b600080fd5b600080fd5b6000819050919050565b610b3e81610b2b565b8114610b4957600080fd5b50565b600081359050610b5b81610b35565b92915050565b600060208284031215610b7757610b76610b21565b5b6000610b8584828501610b4c565b91505092915050565b600073ffffffffffffffffffffffffffffffffffffffff82169050919050565b6000610bb982610b8e565b9050919050565b610bc981610bae565b82525050565b600081519050919050565b600082825260208201905092915050565b60005b83811015610c09578082015181840152602081019050610bee565b60008484015250505050565b6000601f19601f8301169050919050565b6000610c3182610bcf565b610c3b8185610bda565b9350610c4b818560208601610beb565b610c5481610c15565b840191505092915050565b60008115159050919050565b610c7481610c5f565b82525050565b600060c082019050610c8f6000830189610bc0565b610c9c6020830188610bc0565b8181036040830152610cae8187610c26565b90508181036060830152610cc28186610c26565b9050610cd16080830185610c6b565b610cde60a0830184610c6b565b979650505050505050565b610cf281610b2b565b82525050565b6000602082019050610d0d6000830184610ce9565b92915050565b610d1c81610bae565b8114610d2757600080fd5b50565b600081359050610d3981610d13565b92915050565b600080fd5b600080fd5b600080fd5b60008083601f840112610d6457610d63610d3f565b5b8235905067ffffffffffffffff811115610d8157610d80610d44565b5b602083019150836001820283011115610d9d57610d9c610d49565b5b9250929050565b600080600080600060608688031215610dc057610dbf610b21565b5b6000610dce88828901610d2a565b955050602086013567ffffffffffffffff811115610def57610dee610b26565b5b610dfb88828901610d4e565b9450945050604086013567ffffffffffffffff811115610e1e57610e1d610b26565b5b610e2a88828901610d4e565b92509250509295509295909350565b600082825260208201905092915050565b7f57494c4c5f4e4f545f464f554e44000000000000000000000000000000000000600082015250565b6000610e80600e83610e39565b9150610e8b82610e4a565b602082019050919050565b60006020820190508181036000830152610eaf81610e73565b9050919050565b7f414c52454144595f554e4c4f434b454400000000000000000000000000000000600082015250565b6000610eec601083610e39565b9150610ef782610eb6565b602082019050919050565b60006020820190508181036000830152610f1b81610edf565b9050919050565b7f4e487b7100000000000000000000000000000000000000000000000000000000600052602260045260246000fd5b60006002820490506001821680610f6957607f821691505b602082108103610f7c57610f7b610f22565b5b50919050565b7f494e56414c49445f42454e454649434941525900000000000000000000000000600082015250565b6000610fb8601383610e39565b9150610fc382610f82565b602082019050919050565b60006020820190508181036000830152610fe781610fab565b9050919050565b7f4e487b7100000000000000000000000000000000000000000000000000000000600052601160045260246000fd5b600061102882610b2b565b91507fffffffffffffffffffffffffffffffffffffffffffffffffffffffffffffffff820361105a57611059610fee565b5b600182019050919050565b7f4e487b7100000000000000000000000000000000000000000000000000000000600052604160045260246000fd5b60008190508160005260206000209050919050565b60006020601f8301049050919050565b600082821b905092915050565b6000600883026110f67fffffffffffffffffffffffffffffffffffffffffffffffffffffffffffffffff826110b9565b61110086836110b9565b95508019841693508086168417925050509392505050565b6000819050919050565b600061113d61113861113384610b2b565b611118565b610b2b565b9050919050565b6000819050919050565b61115783611122565b61116b61116382611144565b8484546110c6565b825550505050565b600090565b611180611173565b61118b81848461114e565b505050565b5b818110156111af576111a4600082611178565b600181019050611191565b5050565b601f8211156111f4576111c581611094565b6111ce846110a9565b810160208510156111dd578190505b6111f16111e9856110a9565b830182611190565b50505b505050565b600082821c905092915050565b6000611217600019846008026111f9565b1980831691505092915050565b60006112308383611206565b9150826002028217905092915050565b61124982610bcf565b67ffffffffffffffff81111561126257611261611065565b5b61126c8254610f51565b6112778282856111b3565b600060209050601f8311600181146112aa5760008415611298578287015190505b6112a28582611224565b86555061130a565b601f1984166112b886611094565b60005b828110156112e0578489015182556001820191506020850194506020810190506112bb565b868310156112fd57848901516112f9601f891682611206565b8355505b6001600288020188555050505b505050505050565b7f4e4f545f42454e45464943494152590000000000000000000000000000000000600082015250565b6000611348600f83610e39565b915061135382611312565b602082019050919050565b600060208201905081810360008301526113778161133b565b9050919050565b7f4e4f545f554e4c4f434b45440000000000000000000000000000000000000000600082015250565b60006113b4600c83610e39565b91506113bf8261137e565b602082019050919050565b600060208201905081810360008301526113e3816113a7565b9050919050565b7f414c52454144595f455845435554454400000000000000000000000000000000600082015250565b6000611420601083610e39565b915061142b826113ea565b602082019050919050565b6000602082019050818103600083015261144f81611413565b905091905056fea2646970667358221220ee27c6f1dee6fefb9d031c99eba86ce8ea2f16a43249b464119327a346f1508364736f6c63430008180033",
  "linkReferences": {},
  "deployedLinkReferences": {}
}